{
  "contractName": "Calculator",
  "abi": [
    {
      "anonymous": false,
      "inputs": [
        {
          "indexed": true,
          "internalType": "uint256",
          "name": "augend",
          "type": "uint256"
        },
        {
          "indexed": true,
          "internalType": "uint256",
          "name": "addend",
          "type": "uint256"
        },
        {
          "indexed": false,
          "internalType": "uint256",
          "name": "sum",
          "type": "uint256"
        }
      ],
      "name": "Add",
      "type": "event"
    },
    {
      "anonymous": false,
      "inputs": [
        {
          "indexed": true,
          "internalType": "uint256",
          "name": "dividend",
          "type": "uint256"
        },
        {
          "indexed": true,
          "internalType": "uint256",
          "name": "divisor",
          "type": "uint256"
        },
        {
          "indexed": false,
          "internalType": "uint256",
          "name": "quotient",
          "type": "uint256"
        }
      ],
      "name": "Divide",
      "type": "event"
    },
    {
      "anonymous": false,
      "inputs": [
        {
          "indexed": true,
          "internalType": "uint256",
          "name": "dividend",
          "type": "uint256"
        },
        {
          "indexed": true,
          "internalType": "uint256",
          "name": "divisor",
          "type": "uint256"
        },
        {
          "indexed": false,
          "internalType": "uint256",
          "name": "remainder",
          "type": "uint256"
        }
      ],
      "name": "Modulo",
      "type": "event"
    },
    {
      "anonymous": false,
      "inputs": [
        {
          "indexed": true,
          "internalType": "uint256",
          "name": "multiplicand",
          "type": "uint256"
        },
        {
          "indexed": true,
          "internalType": "uint256",
          "name": "multiplier",
          "type": "uint256"
        },
        {
          "indexed": false,
          "internalType": "uint256",
          "name": "product",
          "type": "uint256"
        }
      ],
      "name": "Multiply",
      "type": "event"
    },
    {
      "anonymous": false,
      "inputs": [
        {
          "indexed": true,
          "internalType": "uint256",
          "name": "minuend",
          "type": "uint256"
        },
        {
          "indexed": true,
          "internalType": "uint256",
          "name": "subtrahend",
          "type": "uint256"
        },
        {
          "indexed": false,
          "internalType": "uint256",
          "name": "difference",
          "type": "uint256"
        }
      ],
      "name": "Subtract",
      "type": "event"
    },
    {
      "inputs": [
        {
          "internalType": "uint256",
          "name": "augend",
          "type": "uint256"
        },
        {
          "internalType": "uint256",
          "name": "addend",
          "type": "uint256"
        }
      ],
      "name": "add",
      "outputs": [
        {
          "internalType": "uint256",
          "name": "sum",
          "type": "uint256"
        }
      ],
      "stateMutability": "pure",
      "type": "function"
    },
    {
      "inputs": [
        {
          "internalType": "uint256",
          "name": "minuend",
          "type": "uint256"
        },
        {
          "internalType": "uint256",
          "name": "subtrahend",
          "type": "uint256"
        }
      ],
      "name": "subtract",
      "outputs": [
        {
          "internalType": "uint256",
          "name": "difference",
          "type": "uint256"
        }
      ],
      "stateMutability": "pure",
      "type": "function"
    },
    {
      "inputs": [
        {
          "internalType": "uint256",
          "name": "multiplicand",
          "type": "uint256"
        },
        {
          "internalType": "uint256",
          "name": "multiplier",
          "type": "uint256"
        }
      ],
      "name": "multiply",
      "outputs": [
        {
          "internalType": "uint256",
          "name": "product",
          "type": "uint256"
        }
      ],
      "stateMutability": "pure",
      "type": "function"
    },
    {
      "inputs": [
        {
          "internalType": "uint256",
          "name": "dividend",
          "type": "uint256"
        },
        {
          "internalType": "uint256",
          "name": "divisor",
          "type": "uint256"
        }
      ],
      "name": "divide",
      "outputs": [
        {
          "internalType": "uint256",
          "name": "quotient",
          "type": "uint256"
        }
      ],
      "stateMutability": "pure",
      "type": "function"
    },
    {
      "inputs": [
        {
          "internalType": "uint256",
          "name": "dividend",
          "type": "uint256"
        },
        {
          "internalType": "uint256",
          "name": "divisor",
          "type": "uint256"
        }
      ],
      "name": "modulo",
      "outputs": [
        {
          "internalType": "uint256",
          "name": "remainder",
          "type": "uint256"
        }
      ],
      "stateMutability": "pure",
      "type": "function"
    },
    {
      "inputs": [
        {
          "internalType": "uint256",
          "name": "dividend",
          "type": "uint256"
        },
        {
          "internalType": "uint256",
          "name": "divisor",
          "type": "uint256"
        }
      ],
      "name": "foo",
      "outputs": [
        {
          "internalType": "uint256",
          "name": "remainder",
          "type": "uint256"
        }
      ],
      "stateMutability": "pure",
      "type": "function"
    }
  ],
  "bytecode": "0x608060405234801561001057600080fd5b506102c8806100206000396000f3fe608060405234801561001057600080fd5b50600436106100625760003560e01c806304bc52f814610067578063165c4a16146100b35780633ef5e445146100ff578063771602f71461014b578063baaf073d14610197578063f88e9fbf146101e3575b600080fd5b61009d6004803603604081101561007d57600080fd5b81019080803590602001909291908035906020019092919050505061022f565b6040518082815260200191505060405180910390f35b6100e9600480360360408110156100c957600080fd5b810190808035906020019092919080359060200190929190505050610243565b6040518082815260200191505060405180910390f35b6101356004803603604081101561011557600080fd5b810190808035906020019092919080359060200190929190505050610250565b6040518082815260200191505060405180910390f35b6101816004803603604081101561016157600080fd5b81019080803590602001909291908035906020019092919050505061025d565b6040518082815260200191505060405180910390f35b6101cd600480360360408110156101ad57600080fd5b81019080803590602001909291908035906020019092919050505061026a565b6040518082815260200191505060405180910390f35b610219600480360360408110156101f957600080fd5b81019080803590602001909291908035906020019092919050505061027e565b6040518082815260200191505060405180910390f35b600081838161023a57fe5b06905092915050565b6000818302905092915050565b6000818303905092915050565b6000818301905092915050565b600081838161027557fe5b06905092915050565b600081838161028957fe5b0490509291505056fea26469706673582212201e4e513270fd8e898fca73ae18ae42fcb52b2958da67c64c3b0ae477296c97d964736f6c63430006010033",
  "source": "pragma solidity >=0.5.11 <0.7.0;\n\ncontract Calculator {\n  event Add(\n    uint indexed augend,\n    uint indexed addend,\n    uint sum\n  );\n\n  event Subtract(\n    uint indexed minuend,\n    uint indexed subtrahend,\n    uint difference\n  );\n\n  event Multiply(\n    uint indexed multiplicand,\n    uint indexed multiplier,\n    uint product\n  );\n\n  event Divide(\n    uint indexed dividend,\n    uint indexed divisor,\n    uint quotient\n  );\n\n  event Modulo(\n    uint indexed dividend,\n    uint indexed divisor,\n    uint remainder\n  );\n\n  function add(uint256 augend, uint256 addend) public pure returns (uint256 sum) {\n    // emit Add(augend, addend, sum);\n    return augend + addend;\n  }\n\n  function subtract(uint256 minuend, uint256 subtrahend) public pure returns (uint256 difference) {\n    // emit Subtract(minuend, subtrahend, difference);\n    return minuend - subtrahend;\n  }\n\n  function multiply(uint256 multiplicand, uint256 multiplier) public pure returns (uint256 product) {\n    // emit Multiply(multiplicand, multiplier, product);\n    return multiplicand * multiplier;\n  }\n\n  function divide(uint256 dividend, uint256 divisor) public pure returns (uint256 quotient) {\n    // emit Divide(dividend, divisor, quotient);\n    return dividend / divisor;\n  }\n\n  function modulo(uint256 dividend, uint256 divisor) public pure returns (uint256 remainder) {\n    // emit Modulo(dividend, divisor, remainder);\n    return dividend % divisor;\n  }\n\n  function foo(uint256 dividend, uint256 divisor) public pure returns (uint256 remainder) {\n    // emit Modulo(dividend, divisor, remainder);\n    return dividend % divisor;\n  }\n}\n",
  "sourcePath": "/Users/carloscardona/Sites/dev/calculator/contracts/Calculator.sol",
  "compiler": {
    "name": "solc",
    "version": "0.6.1+commit.e6f7d5a4.Emscripten.clang"
  },
  "schemaVersion": "3.0.20",
  "updatedAt": "2020-01-05T01:56:48.909Z",
  "devdoc": {
    "methods": {}
  },
  "userdoc": {
    "methods": {}
  }
}