{
  "contractName": "Calculator",
  "abi": [
    {
      "anonymous": false,
      "inputs": [
        {
          "indexed": true,
          "internalType": "uint256",
          "name": "augend",
          "type": "uint256"
        },
        {
          "indexed": true,
          "internalType": "uint256",
          "name": "addend",
          "type": "uint256"
        },
        {
          "indexed": false,
          "internalType": "uint256",
          "name": "sum",
          "type": "uint256"
        }
      ],
      "name": "Add",
      "type": "event"
    },
    {
      "anonymous": false,
      "inputs": [
        {
          "indexed": true,
          "internalType": "uint256",
          "name": "dividend",
          "type": "uint256"
        },
        {
          "indexed": true,
          "internalType": "uint256",
          "name": "divisor",
          "type": "uint256"
        },
        {
          "indexed": false,
          "internalType": "uint256",
          "name": "quotient",
          "type": "uint256"
        }
      ],
      "name": "Divide",
      "type": "event"
    },
    {
      "anonymous": false,
      "inputs": [
        {
          "indexed": true,
          "internalType": "uint256",
          "name": "dividend",
          "type": "uint256"
        },
        {
          "indexed": true,
          "internalType": "uint256",
          "name": "divisor",
          "type": "uint256"
        },
        {
          "indexed": false,
          "internalType": "uint256",
          "name": "remainder",
          "type": "uint256"
        }
      ],
      "name": "Modulo",
      "type": "event"
    },
    {
      "anonymous": false,
      "inputs": [
        {
          "indexed": true,
          "internalType": "uint256",
          "name": "multiplicand",
          "type": "uint256"
        },
        {
          "indexed": true,
          "internalType": "uint256",
          "name": "multiplier",
          "type": "uint256"
        },
        {
          "indexed": false,
          "internalType": "uint256",
          "name": "product",
          "type": "uint256"
        }
      ],
      "name": "Multiply",
      "type": "event"
    },
    {
      "anonymous": false,
      "inputs": [
        {
          "indexed": true,
          "internalType": "uint256",
          "name": "minuend",
          "type": "uint256"
        },
        {
          "indexed": true,
          "internalType": "uint256",
          "name": "subtrahend",
          "type": "uint256"
        },
        {
          "indexed": false,
          "internalType": "uint256",
          "name": "difference",
          "type": "uint256"
        }
      ],
      "name": "Subtract",
      "type": "event"
    },
    {
      "inputs": [
        {
          "internalType": "uint256",
          "name": "augend",
          "type": "uint256"
        },
        {
          "internalType": "uint256",
          "name": "addend",
          "type": "uint256"
        }
      ],
      "name": "add",
      "outputs": [
        {
          "internalType": "uint256",
          "name": "sum",
          "type": "uint256"
        }
      ],
      "stateMutability": "nonpayable",
      "type": "function"
    },
    {
      "inputs": [
        {
          "internalType": "uint256",
          "name": "minuend",
          "type": "uint256"
        },
        {
          "internalType": "uint256",
          "name": "subtrahend",
          "type": "uint256"
        }
      ],
      "name": "subtract",
      "outputs": [
        {
          "internalType": "uint256",
          "name": "difference",
          "type": "uint256"
        }
      ],
      "stateMutability": "pure",
      "type": "function",
      "constant": true
    },
    {
      "inputs": [
        {
          "internalType": "uint256",
          "name": "multiplicand",
          "type": "uint256"
        },
        {
          "internalType": "uint256",
          "name": "multiplier",
          "type": "uint256"
        }
      ],
      "name": "multiply",
      "outputs": [
        {
          "internalType": "uint256",
          "name": "product",
          "type": "uint256"
        }
      ],
      "stateMutability": "pure",
      "type": "function",
      "constant": true
    },
    {
      "inputs": [
        {
          "internalType": "uint256",
          "name": "dividend",
          "type": "uint256"
        },
        {
          "internalType": "uint256",
          "name": "divisor",
          "type": "uint256"
        }
      ],
      "name": "divide",
      "outputs": [
        {
          "internalType": "uint256",
          "name": "quotient",
          "type": "uint256"
        }
      ],
      "stateMutability": "pure",
      "type": "function",
      "constant": true
    },
    {
      "inputs": [
        {
          "internalType": "uint256",
          "name": "dividend",
          "type": "uint256"
        },
        {
          "internalType": "uint256",
          "name": "divisor",
          "type": "uint256"
        }
      ],
      "name": "modulo",
      "outputs": [
        {
          "internalType": "uint256",
          "name": "remainder",
          "type": "uint256"
        }
      ],
      "stateMutability": "pure",
      "type": "function",
      "constant": true
    }
  ],
  "bytecode": "0x608060405234801561001057600080fd5b5061025d806100206000396000f3fe608060405234801561001057600080fd5b50600436106100575760003560e01c8063165c4a161461005c5780633ef5e445146100a8578063771602f7146100f4578063baaf073d14610140578063f88e9fbf1461018c575b600080fd5b6100926004803603604081101561007257600080fd5b8101908080359060200190929190803590602001909291905050506101d8565b6040518082815260200191505060405180910390f35b6100de600480360360408110156100be57600080fd5b8101908080359060200190929190803590602001909291905050506101e5565b6040518082815260200191505060405180910390f35b61012a6004803603604081101561010a57600080fd5b8101908080359060200190929190803590602001909291905050506101f2565b6040518082815260200191505060405180910390f35b6101766004803603604081101561015657600080fd5b8101908080359060200190929190803590602001909291905050506101ff565b6040518082815260200191505060405180910390f35b6101c2600480360360408110156101a257600080fd5b810190808035906020019092919080359060200190929190505050610213565b6040518082815260200191505060405180910390f35b6000818302905092915050565b6000818303905092915050565b6000818301905092915050565b600081838161020a57fe5b06905092915050565b600081838161021e57fe5b0490509291505056fea2646970667358221220d6e7e6f532cef788de6958a3cd97c54b41ffb017175c5eedb31f422542c19c8864736f6c63430006010033",
  "source": "pragma solidity >=0.5.11 <0.7.0;\n\ncontract Calculator {\n  event Add(\n    uint indexed augend,\n    uint indexed addend,\n    uint sum\n  );\n\n  event Subtract(\n    uint indexed minuend,\n    uint indexed subtrahend,\n    uint difference\n  );\n\n  event Multiply(\n    uint indexed multiplicand,\n    uint indexed multiplier,\n    uint product\n  );\n\n  event Divide(\n    uint indexed dividend,\n    uint indexed divisor,\n    uint quotient\n  );\n\n  event Modulo(\n    uint indexed dividend,\n    uint indexed divisor,\n    uint remainder\n  );\n\n  function add(uint256 augend, uint256 addend) public returns (uint256 sum) {\n    // emit Add(augend, addend, sum);\n    return augend + addend;\n  }\n\n  function subtract(uint256 minuend, uint256 subtrahend) public pure returns (uint256 difference) {\n    // emit Subtract(minuend, subtrahend, difference);\n    return minuend - subtrahend;\n  }\n\n  function multiply(uint256 multiplicand, uint256 multiplier) public pure returns (uint256 product) {\n    // emit Multiply(multiplicand, multiplier, product);\n    return multiplicand * multiplier;\n  }\n\n  function divide(uint256 dividend, uint256 divisor) public pure returns (uint256 quotient) {\n    // emit Divide(dividend, divisor, quotient);\n    return dividend / divisor;\n  }\n\n  function modulo(uint256 dividend, uint256 divisor) public pure returns (uint256 remainder) {\n    // emit Modulo(dividend, divisor, remainder);\n    return dividend % divisor;\n  }\n}\n",
  "sourcePath": "/Users/carloscardona/Sites/dev/calculator/contracts/Calculator.sol",
  "compiler": {
    "name": "solc",
    "version": "0.6.1+commit.e6f7d5a4.Emscripten.clang"
  },
  "schemaVersion": "3.0.20",
  "updatedAt": "2020-01-05T01:01:30.170Z",
  "networkType": "ethereum",
  "devdoc": {
    "methods": {}
  },
  "userdoc": {
    "methods": {}
  }
}